:080000000C94B7060C940000FB
:100008000C9400000C9400000C9400000C94000068
:100018000C9400000C9400000C9400000C94000058
:100028000C94CF120C9400000C9400000C94000067
:100038000C9400000C9400000C9400000C94000038
:100048000C9400000C9400000C9400006002020064
:100058005A00485454502F312E3020323030204F1F
:100068004B0D0A5365727665723A204B69636B4192
:100078007373205365727665720D0A436F6E7465EB
:100088006E742D747970653A20746578742F68746D
:100098006D6C0D0A0D0A3C68746D6C3E3C686561B8
:1000A800643E3C6D65746120485454502D4551554B
:1000B80049563D22636F6E74656E742D7479706550
:1000C8002220434F4E54454E543D22746578742F78
:1000D80068746D6C3B20636861727365743D697305
:1000E8006F2D383835392D31223E3C7469746C6572
:1000F8003E696E6465783C2F7469746C653E3C6C2F
:10010800696E6B2072656C3D2273686F72746375DB
:10011800742069636F6E2220687265663D222F66BF
:10012800617669636F6E2E69636F222074797065DA
:100138003D22696D6167652F782D69636F6E222096
:100148003E3C2F686561643E3C626F64793E3C6862
:10015800313E41746D656C204D65676133322057BF
:1001680065627365727665723C2F68313E3C6272D7
:10017800202F3E3C6120687265663D2261626F7582
:10018800742E68746D6C223E627920457269632012
:100198004D65736120616E642052696368617264A1
:1001A80020576573743C2F613E3C2F68313E3C629A
:1001B800723E6261736564206F6E20736F7572633F
:1001C8006520636F6465206279204A6572656D7980
:1001D8002054616E3C62723E3C68323E536F756ECD
:1001E8006420426974653C2F68323E3C62723E4F1F
:1001F80075722070726F6A6563742069732061205C
:1002080066756C6C79207765622D7374616E6461B4
:1002180072647320636F6D706C69616E74207765AA
:10022800627365727665722072756E6E696E67208C
:100238006F6E20616E2041746D656C204D6567613D
:1002480033322E3C68323E53756D6D6172793C2FA6
:1002580068323E5573696E6720636F646520667205
:100268006F6D20677261647561746520737475645D
:10027800656E74204A6572656D7920547A656D697A
:100288006E672054616E2C20776520696D70726FDF
:100298007665642075706F6E206869732077656273
:1002A80073657276657220736F7572636520636F0C
:1002B8006465206279206D616B696E6720697420BE
:1002C8006D6F72652066756C6C7920636F6D706CEC
:1002D80069616E74207769746820496E7465726EFE
:1002E8006574205374616E64617264732E202041BA
:1002F80064646974696F6E616C6C792C2077652011
:100308006D6F64756C6172697A65642068697320C1
:10031800636F646520666F72206561736572206D16
:1003280061696E74656E616E63652C20646F6375B8
:100338006D656E746174696F6E2C20616E642069DE
:100348006D706C656D656E746174696F6E2E3C615D
:1003580020687265663D22696E646578322E68741D
:100368006D6C223E6E6578743C2F613E3C2F626F47
:1003780064793E3C2F68746D6C3E0D0A0D0A0000CE
:10038800620202008E03485454502F312E3020321E
:100398003030204F4B0D0A5365727665723A204B08
:1003A80069636B417373205365727665720D0A43F6
:1003B8006F6E74656E742D747970653A2074657803
:1003C800742F68746D6C0D0A0D0A3C68746D6C3E70
:1003D8003C686561643E3C6D6574612048545450C6
:1003E8002D45515549563D22636F6E74656E742DC7
:1003F800747970652220434F4E54454E543D227403
:100408006578742F68746D6C3B20636861727365DE
:10041800743D69736F2D383835392D31223E3C745F
:1004280069746C653E696E646578323C2F746974D2
:100438006C653E3C6C696E6B2072656C3D2273681E
:100448006F72746375742069636F6E2220687265B9
:10045800663D222F66617669636F6E2E69636F222F
:1004680020747970653D22696D6167652F782D6903
:10047800636F6E22203E3C2F686561643E3C626F6C
:1004880064793E42792073706C697474696E672070
:1004980075702074686520636F64652C20696E73BD
:1004A80074656164206F66206B656570696E67208E
:1004B800616C6C2032303030206C696E6573206955
:1004C8006E206F6E652066696C652C20736F6D6594
:1004D8006F6E652077686F2077697368657320741D
:1004E8006F206D61696E7461696E2061207370653B
:1004F80063696669632066756E6374696F6E2077D9
:100508006F756C646E2774206861766520746F203F
:1005180068756E7420666F72206974207468726FD3
:100528007567686F7574207468652066696C652ED8
:100538002020446F63756D656E746174696F6E20F9
:100548006F662065616368206F6620746865206641
:10055800696C6573206973206D61646520656173DA
:100568006965722062792073706C697474696E674A
:10057800207468656D2075702062656361757365A8
:100588002061206C6F74206D6F726520646F6375D5
:100598006D656E746174696F6E2063616E20657835
:1005A8006973742061742074686520746F697020A1
:1005B8006F662065616368206F66207468652066D1
:1005C800696C65732E202046496E616C6C792C200D
:1005D80077652068617665202C2074686572656689
:1005E8006F72652C206275696C74207570206120AB
:1005F8006C696272617279206F6620496E746572E7
:100608006E65742070726F746F636F6C732E202028
:10061800536F6D656F6E6520656C7365206D6179CC
:100628002074616B65206F7572206C6962726172EB
:10063800792066696C657320616E6420696D706CE1
:10064800656D656E74206F6E6C792074686F736564
:100658002070726F746F636F6C732077686963685A
:100668002061726520696D706F7274616E74207498
:100678006F207468617420737065636966696320AC
:1006880070726F6A65637420696E73746561642043
:100698006F6620686176696E6720746F20696D7077
:1006A8006C656D656E7420612066756C6C2D626C6E
:1006B8006F776E207765627365727665722E3C2F50
:1006C800626F64793E3C2F68746D6C3E0D0A0D0AAA
:1006D800000064020200E006485454502F312E30C6
:1006E80020323030204F4B0D0A5365727665723ACE
:1006F800204B69636B417373205365727665720D85
:100708000A436F6E74656E742D747970653A20743F
:100718006578742F68746D6C0D0A0D0A3C68746DE9
:100728006C3E3C686561643E3C6D6574612048546C
:1007380054502D45515549563D22636F6E74656E70
:10074800742D747970652220434F4E54454E543DA4
:1007580022746578742F68746D6C3B2063686172CD
:100768007365743D69736F2D383835392D31223EE4
:100778003C7469746C653E61626F75743C2F746972
:10078800746C653E3C6C696E6B2072656C3D2273BF
:10079800686F72746375742069636F6E2220687263
:1007A80065663D222F66617669636F6E2E69636F99
:1007B8002220747970653D22696D6167652F782DF7
:1007C80069636F6E22203E3C2F686561643E3C621F
:1007D8006F64793E4572696320616E642052696373
:1007E800686172642C20616C736F206B6E6F776E1A
:1007F80020617320746865204B696E6773206F668B
:100808002041746D656C2C20686176652074616B7D
:10081800656E20736F6D652074696D65206F7574E2
:10082800206F662074686569722062757379207319
:1008380063686564756C6520746F20776F726B20D0
:100848006F6E2074686973206C6974746C652070AD
:10085800726F6A6563742E3C6272202F3E3C612081
:10086800687265663D22696E6465782E68746D6C81
:10087800223E696E6465783C2F613E3C2F626F644E
:10088800793E3C2F68746D6C3E0D0A0D0A00485481
:1008980054502F312E3020323030204F4B0D0A5318
:1008A80065727665723A204B69636B4173732053A6
:1008B80065727665720D0A436F6E74656E742D7479
:1008C8007970653A20696D6167652F782D69636F66
:1008D8006E0D0A0D0A00000100010010100200014F
:1008E800000100B000000016000000280000001001
:1008F80000000020000000010001000000000000CE
:1009080000000000000000000000000000000000DF
:100918000000006B3C6A00000000000000000000BE
:1009280000000000000000000000000000000000BF
:1009380000000000000000000000000000000000AF
:10094800000000000000000000000000000000009F
:10095800000000000000000000000000000000008F
:10096800000000000000000000000000000000007F
:10097800000000000000000000000000000000006F
:10098800000000000000000000000000000000005F
:10099800000000000000000000000000000000004F
:1009A800000000000000000000000000000000003F
:1009B800000000000000000000000000000000002F
:1009C80000000000000000000000000066020200B5
:1009D800DA09485454502F312E3020343030204218
:1009E800616420526571756573740D0A536572767A
:1009F80065723A204B69636B417373205365727655
:100A080065720D0A436F6E74656E742D7479706526
:100A18003A20746578742F68746D6C0D0A0D0A3C61
:100A280068746D6C3E3C686561643E3C6D657461DC
:100A380020485454502D45515549563D22636F6EF8
:100A480074656E742D747970652220434F4E544539
:100A58004E543D22746578742F68746D6C3B206326
:100A68006861727365743D69736F2D383835392D37
:100A780031223E3C7469746C653E6572726F7234E3
:100A880030303C2F7469746C653E3C2F6865616436
:100A98003E3C626F64793E4572726F723430303A10
:100AA800204F7070732C20796F752062726F6B65A0
:100AB80020697420284261642052657175657374D9
:100AC800292E3C2F626F64793E3C2F68746D6C3E12
:100AD8000D0A0D0A000068020200E40A4854545046
:100AE8002F312E3020343034204E6F7420466F75ED
:100AF8006E640D0A5365727665723A204B69636BB2
:100B0800417373205365727665720D0A436F6E7474
:100B1800656E742D747970653A20746578742F68E1
:100B2800746D6C0D0A0D0A3C68746D6C3E3C68650A
:100B380061643E3C6D65746120485454502D4551A4
:100B48005549563D22636F6E74656E742D747970C5
:100B5800652220434F4E54454E543D2274657874A7
:100B68002F68746D6C3B20636861727365743D69AE
:100B7800736F2D383835392D31223E3C7469746CC9
:100B8800653E6572726F723430343C2F7469746CD0
:100B9800653E3C2F686561643E3C626F64793E4502
:100BA80072726F723430343A204F7070732C20791F
:100BB8006F752062726F6B6520697420284E6F74A0
:100BC80020466F756E64292E3C2F626F64793E3C17
:100BD8002F68746D6C3E0D0A0D0A00006A0202004F
:100BE800EA0B485454502F312E3020353031204EE6
:100BF8006F7420496D706C656D656E7465640D0A5F
:100C08005365727665723A204B69636B4173732042
:100C18005365727665720D0A436F6E74656E742D36
:100C2800747970653A20746578742F68746D6C0DEA
:100C38000A0D0A3C68746D6C3E3C686561643E3C14
:100C48006D65746120485454502D45515549563DA1
:100C580022636F6E74656E742D74797065222043FB
:100C68004F4E54454E543D22746578742F68746D08
:100C78006C3B20636861727365743D69736F2D38CE
:100C88003835392D31223E3C7469746C653E657285
:100C9800726F723530313C2F7469746C653E3C2F2D
:100CA800686561643E3C626F64793E4572726F723A
:100CB8003530313A204F7070732C20796F7520626F
:100CC800726F6B6520697420284E6F7420496D70AF
:100CD8006C656D656E746564292E3C2F626F64794E
:100CE8003E3C2F68746D6C3E0D0A0D0A00006E02C2
:100CF8000400C0A802FF7A0206004A657374657290
:100D080048050200200300000000474554002F005A
:100D18002F696E6465782E68746D6C002F61626F40
:100D280075742E68746D6C002F696E646578322E48
:100D380068746D6C002F66617669636F6E2E6963E7
:100D48006F004845414400504F53540054524143AA
:100D5800450054008803DA06D409DE0AE40BF60CD1
:100D6800FE0C080D0000F894EE27ECBBF1E0FBBF89
:100D7800EBBFE5BFF8E1F1BDF0E1F1BD8DE0A2E028
:100D8800BB27ED938A95E9F780E098E0A0E6ED931C
:100D98000197E9F7EAE5FDE005901590BF01F0013C
:100DA800309751F0A591B5918591959105900D9247
:100DB8000197E1F7FB01F0CFEFE5EDBFE8E0EEBF0B
:100DC800C0E6D2E00C941C140E94A3140E94C5141F
:100DD8000E94C9140E94CF1400E0063030F40E942B
:100DE800D5140E94D9140F5FF8CF00E0063030F414
:100DF8000E94D5140E94E1140F5FF8CFE0E9F2E0F9
:100E0800E0934A05F0934B05E2E0E093990200E095
:100E18000A3048F4E0E1EA930E94E814EA930E9459
:100E280013100F5FF5CF00E0063030F40E94D514A0
:100E38000E94E1140F5FF8CF00E0043048F40E94EC
:100E4800D514FF27E259FD4F0E94F2140F5FF5CF2A
:100E580000E0063030F40E94D5140E94D9140F5FC8
:100E6800F8CF00E0043050F40E94D514E45EFF2768
:100E7800EC57FD4F0E94F2140F5FF4CF00E00231EF
:100E880028F4E0E10E94F6140F5FF9CFEE27E09313
:100E98004C05E0914C05E07419F40E94FB14F9CF5D
:100EA800E5E0EA930E94C514E6E00E94F6140E9469
:100EB800FF14E5C3EE27E093A602E093A702E093B0
:100EC800A802E093A9020E945312EE27E0936A0554
:100ED800E0936B05E0936C05E0936D05E091940257
:100EE8000E940515FF93EF93E0919502AF91BF9192
:100EF800FF27EA0FFB1FFF93EF93E0919202EF7039
:100F0800EE0FEE0FAF91BF91FF27AE1BBF0BA09363
:100F18005605B0935705E6EAF2E00E940C150E94C8
:100F28002F15E093A802E0915405F0915505EF7F45
:100F3800F070E093A9020E94EE100895E091A802D3
:100F4800E03021F4E091A902E43409F039C0E091DD
:100F5800AC020E940515FF93EF93E091AD02AF91AB
:100F6800BF910E943515E093AC02EE27E093AD02E5
:100F78000E944415EEE9F2E0E0934A05F0934B0530
:100F880022D6E0919B020E945415EAEAF2E0E0932F
:100F98004A05F0934B0517D6E091AA020E94051561
:100FA800FF93EF93E091AB02AF91BF910E94701550
:100FB800E6EAF2E00E940C150E94781509F4FBD0CD
:100FC80008951A930A93E091AA020E94051574964F
:100FD800FF93EF93E091AB02AF91BF910E94891507
:100FE8000E949115E0939402E0916405F0916505E3
:100FF800EF7FF070E0939502E1E1E0939B02EE272A
:10100800E0939C02E0939D02EE27E0936A05E0934B
:101018006B05E0936C05E0936D05EE27E0935405AE
:10102800E0935505E09192020E949715E2E9F2E0FB
:101038000E940C150E942F15E0939C02E091540524
:10104800F0915505EF7FF070E0939D02EE27E09355
:10105800A602E4E4E093A702EE27E093A802E3E403
:10106800E093A902EE27E093AC02E093AD020E9460
:101078004415EEE9F2E0E0934A05F0934B05A3D559
:10108800E0919B020E945415EAEAF2E0E0934A05D7
:10109800F0934B0598D5E091AA020E940515FF939D
:1010A800EF93E091AB02AF91BF910E947015E6EA11
:1010B800F2E00E940C150E942F15E093AC02E0911B
:1010C8005405F0915505EF7FF070E093AD020E9452
:1010D800A01530F4ECE3F0E0E0935005F0935105EF
:1010E8000E94B115E0914C05E47019F00E94CA15F0
:1010F800F9CF0E94CE150E94D61500E010E0E091CD
:101108005005F09151050E171F0728F40E94F1159C
:101118000F5F1F4FF4CFEE27E0934C05E0914C058D
:10112800E07419F40E94FB14F9CF0E94F915099193
:1011380019910895EFEFE093A202E093A302E093E0
:10114800A402E093A502EE27E0939E02E0939F029B
:10115800E093A002E093A102EFEFE0938402E09312
:101168008502E0938602E0938702E0938802E09389
:101178008902E0917A02E0938A02E0917B02E0938F
:101188008B02E0917C02E0938C02E0917D02E09377
:101198008D02E0917E02E0938E02E0917F02E0935F
:1011A8008F02E8E0E0939002EE27E0939102E5E4F5
:1011B800E093920208950A93E0914005F091410569
:1011C800309711F00C94760900E0043020F40E9466
:1011D80008160F5FFACFE1E0E093AE02E093AF02AA
:1011E800E6E0E093B002EE27E093B102E1E3E0939A
:1011F800B202E5E2E093B302EAE7E093B402EDE17C
:10120800E093B50202E3063420F40E940F160F5F44
:10121800FACF00E0063058F40E941616FF93EF93B9
:101228000E941C16AF91BF91EC930F5FF3CF00E0C3
:101238000A3020F40E9422160F5FFACF00E0003C2B
:1012480020F40E942B160F5FFACFE3E6E0939A038F
:10125800E2E8E0939B03E3E5E0939C03E3E6E09395
:101268009D03E5E3E0939E03E1E0E0939F03E093B1
:10127800A003EDE3E093A103E7E0E093A203E1E03C
:10128800E093A30300E0063058F40E943416FF935D
:10129800EF930E941C16AF91BF91EC930F5FF3CFB1
:1012A800EFEFE093AA03E1E1F0E00E943D16E0933E
:1012B800AA020E944716E093AB020E949E080E9471
:1012C800E50700E0043020F40E9408160F5FFACF0B
:1012D800E1E0F0E0E0934605F0934705E093400530
:1012E800F0934105A0914005B0914105A130E0E09F
:1012F800BE0711F00C94BF0AA0914605B0914705AE
:10130800A230E0E0BE0711F40C94D109E091B202DA
:101318000E9452167F936F93FF93EF93E091B3026D
:10132800FF27662777270E942018AF91BF918F91DA
:101338009F910E9400187F936F93FF93EF93E09122
:10134800B4020E945B16AF91BF918F919F910E944A
:1013580000187F936F93FF93EF93E091B502FF27F7
:1013680066277727AF91BF918F919F910E940518AB
:10137800AD31EAE7BE07E5E28E07E1E39E0761F4D7
:10138800E0919E03E53341F4E0919F03E13021F4BD
:10139800E091A003E23009F0EEC0A0914605B091BB
:1013A8004705A130E0E0BE07E1F400E00430C8F4EE
:1013B8000E946416FF93EF930E946916E081AF9133
:1013C800BF91EC930E946F16FF93EF93E02FE65EB8
:1013D800FF27EC57FD4FE081AF91BF91EC930F5F72
:1013E800E5CFE2E0F0E0E0934605F093470500E042
:1013F800043020F40E9408160F5FFACFE1E0E09372
:10140800AE02E093AF02E6E0E093B002EE27E0938D
:10141800B102E1E3E093B202E5E2E093B302EAE766
:10142800E093B402EDE1E093B50202E30A3320F45D
:101438000E940F160F5FFACF0EE3063420F40E94C5
:101448000F160F5FFACF00E0063058F40E94161608
:10145800FF93EF930E941C16AF91BF91EC930F5F1F
:10146800F3CF00E00A3020F40E9422160F5FFACF73
:1014780000E0003C20F40E942B160F5FFACFE3E651
:10148800E0939A03E2E8E0939B03E3E5E0939C038F
:10149800E3E6E0939D03E5E3E0939E03E1E0E09358
:1014A8009F03E3E0E093A003EDE3E093A103E7E00B
:1014B800E093A203E1E0E093A30300E0063058F4D0
:1014C8000E943416FF93EF930E941C16AF91BF91B0
:1014D800EC930F5FF3CFE2E3E093AA03E4E0E09339
:1014E800AB0300E0043078F4E02FA8E2B1E00E94FA
:1014F8007416FF93EF930E946416E081AF91BF9139
:10150800EC930F5FEFCF00E0043030F40E946916CF
:101518000E947A160F5FF8CFE6E3E093B003E4E0A9
:10152800E093B10300E0043078F4E02FAEE2B1E0DC
:101538000E947416FF93EF930E946F16E081AF919B
:10154800BF91EC930F5FEFCFEFEFE093B603EDE1C0
:10155800F0E00E943D16E093AA020E944716E0932D
:10156800AB020E949E080E94E507E2E0F0E0E093EB
:101578004005F0934105A0914005B0914105A23086
:10158800E0E0BE07F1F4A0919E02E0917602EA172E
:10159800C1F4E0919F02EF93E0917702AF91EA17CF
:1015A80081F4E091A002EF93E0917802AF91EA17FD
:1015B80041F4E091A102EF93E0917902AF91EA172B
:1015C80009F05DC0E091B2020E9452167F936F93BA
:1015D800FF93EF93E091B302FF27662777270E94D6
:1015E8002018AF91BF918F919F910E9400187F930F
:1015F8006F93FF93EF93E091B4020E945B16AF9153
:10160800BF918F919F910E9400187F936F93FF93D2
:10161800EF93E091B502FF2766277727AF91BF9137
:101628008F919F910E940518AD31EAE7BE07E5E268
:101638008E07E1E39E0761F4E0919E03E53341F4F0
:10164800E0919F03E13021F4E091A003E53009F037
:1016580016C0EE27E0934605E093470500E0043006
:1016680070F4E02FFF27E259FD4FFF93EF930E949C
:101678006916E081AF91BF91EC930F5FF0CF0991AC
:101688000895E091A8020E940515FF93EF93E09159
:10169800A902AF91BF91FF27EA0FFB1FE0936205F4
:1016A800F0936305E09192020E947E16E091940205
:1016B8000E940515FF93EF93E0919502AF91BF91BA
:1016C800FF27EA0FFB1FFF93EF93E0919202EF7061
:1016D800EE0FEE0FAF91BF91FF270E943F18EA1B54
:1016E800FB0BFF93EF93E091B202E07FE295EF707E
:1016F800EE0FEE0FAF91BF91FF27AE1BBF0BA0936C
:101708005A05B0935B05E091B6020E940515FF9358
:10171800EF93E091B702AF91BF910E943515E09326
:10172800B602EE27E093B7020E944415EEE9F2E014
:10173800E0934A05F0934B0546D2E0919B020E9444
:101748008D160E94A316E6EAF2E00E940C150E948C
:10175800781541F4A0916205B0916305A035E0E0E9
:10176800BE0709F01DC2E091B302E27041F0A091FA
:101778006205B0916305A035E0E0BE0709F0DFC05F
:10178800EE27E0936C02E0936D02E1E0F0E0E09375
:101798005A05F0935B05EE27E0935E05E0935F053D
:1017A800EE2DE160EE2EE0919E02E0937202E09150
:1017B8009F02E0937302E091A002E0937402E0912B
:1017C800A102E09375020E945312E091A602E093F1
:1017D8004E05E091A802E093A602A8EAB2E0E091E3
:1017E8004E05EC93E091A702E0934E05E091A90223
:1017F800E093A702A9EAB2E00E94C4160E94C916A3
:101808000E94461831F00E94C916AF3FEFEFBE079D
:1018180061F4EFEFFFEF64E372E1E0936E05F0939C
:101828006F056093700570937105E0916E05F091F6
:101838006F056091700570917105EF5FFF4F6F4FF5
:101848007F4FE0937A05F0937B0560937C05709356
:101858007D05E0917105EF7FF07060707070E09326
:10186800AA020E94D316E093AB020E94E216E0930C
:10187800AC02E0916E05F0916F0560917005709172
:101888007105EF7FF07060707070E093AD02EE2725
:10189800E093B302E3EBF2E0FF93EF93E081E260C1
:1018A800AF91BF91EC93E3EBF2E0FF93EF93E0810C
:1018B800E061AF91BF91EC93EE27E093B602E0931D
:1018C800B7020E944415EEE9F2E0E0934A05F0936E
:1018D8004B0579D1E0919B020E948D16E09194020C
:1018E8000E940515FF93EF93E0919502AF91BF9188
:1018F800FF27EA0FFB1FFF93EF93E0919202EF702F
:10190800EE0FEE0FAF91BF91FF27AE1BBF0BA09359
:101918005805B09359050E94A316E6EAF2E00E9422
:101928000C150E942F15E093B602E0915405F09132
:101938005505EF7FF070E093B7020E94EE10E0913A
:101948009E02A0917202EA17C1F4E0917302EF932C
:10195800E0919F02AF91EA1781F4E0917402EF934E
:10196800E091A002AF91EA1741F4E0917502EF937C
:10197800E091A102AF91EA1709F012C1E091B30218
:10198800E07111F40C94AE0DE091AE020E94521673
:101998007F936F93FF93EF93E091AF02FF27662742
:1019A80077270E942018AF91BF918F919F910E9435
:1019B80000187F936F93FF93EF93E091B0020E941A
:1019C8005B16AF91BF918F919F910E9400187F93F2
:1019D8006F93FF93EF93E091B102FF276627772774
:1019E800AF91BF918F919F910E940018E093760567
:1019F800F09377056093780570937905E0917A05FF
:101A0800F0917B0560917C0570917D05A09176052C
:101A1800B091770580917805909179050E944A18D0
:101A280011F00C94670DE0917605F09177056091BF
:101A3800780570917905E0936E05F0936F056093D2
:101A4800700570937105A0918005B0918105A23051
:101A5800E0E0BE0731F4EE27E0938005E0938105CE
:101A68000EC0A0918005B0918105A130E0E0BE07CD
:101A780031F4E2E0F0E0E0938005F0938105E0FEC8
:101A880002C00E94EC16E0915A05F0915B05309770
:101A980081F0A0915A05B0915B05E0E9F1E0EA1701
:101AA800FB0720F4E0935A05F0935B050E94F016BB
:101AB80009C0E1E0F0E0E815F90521F4882499244B
:101AC8000E94F01647C0E0917A05F0917B0560917D
:101AD8007C0570917D05A0917605B0917705809180
:101AE8007805909179050E944F18A0F50E94F81684
:101AF800A0917A05B0917B0580917C0590917D0538
:101B08000E9439180E940A18E0936E05F0936F0539
:101B1800609370057093710588249924E1E0F0E0E2
:101B2800E0937E05F0937F05AA24BB24CE2EDF2EFA
:101B38000E94F816A0916C02B0916D020E942518BF
:101B48000E9439180E940A18E0936C02F0936D0203
:101B58000E94B413E091B302E17011F1E1E0F0E00A
:101B6800E0937E05F0937F05DFD0E0918005F0914A
:101B78008105309741F4E1E0F0E0E0938005F093CF
:101B880081050FD00DC0A0918005B0918105A230CC
:101B9800E0E0BE0729F4EE27E0938005E093810595
:101BA80008950E940B17EE27E0935E05E0935F050A
:101BB800BBD0E0918005F09181053196E0938005D6
:101BC800F09381050895A0915605B0915705E1E07D
:101BD800F0E0EA17FB0790F40E94E814E0934D0543
:101BE8000E94E8140E940F17E0915605F0915705DE
:101BF8003297E0935605F0935705E5CFA091560527
:101C0800B09157050E94461850F4A0914A05B0912A
:101C18004B05EC91E0934D05EE270E940F170895B0
:101C2800E091AA020E9452167F936F93FF93EF935D
:101C3800E091AB02FF27662777270E942018AF9113
:101C4800BF918F919F910E9400187F936F93FF938C
:101C5800EF93E091AC020E945B16AF91BF918F9118
:101C68009F910E9400187F936F93FF93EF93E091E9
:101C7800AD02FF2766277727AF91BF918F919F917C
:101C88000E940018E0937205F09373056093740541
:101C980070937505E0915A05F0915B05A091720566
:101CA800B091730580917405909175056627772723
:101CB8000E940018E0937205F09373056093740511
:101CC80070937505E0917505EF7FF0706070707026
:101CD800E093AE02E0917205F0917305609174058E
:101CE800709175050E941B18EF7FF070607070701E
:101CF800E093AF02E0917205F0917305EF2FEF7F4B
:101D0800F07060707070E093B002E0917205F0912D
:101D180073056091740570917505EF7FF0706070C0
:101D28007070E093B10208951A930A93E0915E05EA
:101D3800F0915F05309719F5EEE0F0E0E0935E056D
:101D4800F0935F0500E010E00E30E0E01E0750F46D
:101D5800E02FF12FF696EC57FD4F0E947A160F5F91
:101D68001F4FF2CFE0916E05F0916F0560917005FD
:101D780070917105EF5FFF4F6F4F7F4F10C0E0917B
:101D88005E05F0915F05A0916E05B0916F05809199
:101D9800700590917105662777270E940018E093D7
:101DA8007A05F0937B0560937C0570937D05E0913F
:101DB8005E05F0915F05B896E0936405F0936505BC
:101DC8000E949115E0939402E0916405F0916505F5
:101DD800EF7FF070E0939502E6E0E0939B020E94AB
:101DE8005312E091A602E0934E05E091A802E09319
:101DF800A602A8EAB2E0E0914E05EC93E091A702B2
:101E0800E0934E05E091A902E093A702A9EAB2E0A7
:101E18000E94C416E0917105EF7FF07060707070D9
:101E2800E093AA020E94D316E093AB020E94E21646
:101E3800E093AC02E0916E05F0916F05609170053A
:101E480070917105EF7FF07060707070E093AD0273
:101E5800EE27E093B302E1E0F0E0E0937E05F09333
:101E68007F05309749F0E3EBF2E0FF93EF93E081D1
:101E7800E061AF91BF9108C0E3EBF2E0FF93EF930D
:101E8800E081E774AF91BF91EC93EE27E0937E0574
:101E9800E0937F05E1FE0BC0E3EBF2E0FF93EF93E5
:101EA800E081E160AF91BF91EC930E943717EE2774
:101EB800E093B602E093B7020E944415EEE9F2E01F
:101EC800E0934A05F0934B050E94E70DE0919B02D1
:101ED8000E948D16E09192020E947E160E94A3161F
:101EE800E6EAF2E00E940C150E942F15E093B60274
:101EF800E0915405F0915505EF7FF070E093B7023B
:101F08000E94A01530F4ECE3F0E0E0935005F09364
:101F180051050E94B115E0914C05E47019F00E943A
:101F2800CA15F9CF0E94CE150E94D61500E010E020
:101F3800E0915005F09151050E171F0728F40E94F3
:101F4800F1150F5F1F4FF4CFEE27E0934C05E0919A
:101F58004C05E07419F40E94FB14F9CF0E94F9159E
:101F680009911991089524970A93ED81FE81AF8113
:101F7800B885EA0FFB1FEB83FC83E983FA8300E053
:101F8800043610F00C940610E02FEE5BFF27EC5798
:101F9800FD4FFF93EF93E981FA81E491AF91BF91EF
:101FA800EC93E981FA813196E983FA83E6E9F8E06E
:101FB800AF81B885EA17FB0781F0E981FA81E491DE
:101FC800E03051F40E943B17FF93EF93EEE0FDE001
:101FD800AF91BF91EC9316C013C0AF81B885E9816A
:101FE800FA81EA1BFB0B4E165F0650F40E943B1762
:101FF800FF93EF93E0E1FDE0AF91BF91EC9302C056
:102008000F5FBECFAB81BC81E981FA81EA1BFB0B74
:10201800E0935E05F0935F05088129960895E981AC
:10202800E8BBEFEFE4BBE881E5BB00009798000050
:1020380000000000979A00000E9441172296089518
:102048000E944117E881E8BB969800000000000054
:102058000000E3B3E0934C05969A0000219608959A
:102068000A930E944117EFEFE7BBEE27E8BBEABBF4
:10207800E0EEE1BBEFE1E2BB9598979A969AC79A92
:102088000E944617C798E8E1EA930E942410E8E105
:10209800EA93E0914C05EA930E941310E4E1F0E022
:1020A800FA93EA930E94D8170E94FB14E0914C051A
:1020B800E07801F40E944C170E9446170E945217BC
:1020C800EAE00E94F6140E94C914ECE0EA93E4E006
:1020D800EA930E941310E4E0EA93E0E40E945817A0
:1020E8000E945D17E1E00E946217E3E00E94621718
:1020F800E2E0EA93E0E6EA930E941310EE27EA93FF
:10210800E1E6EA930E9413100E944617E7E00E9456
:10211800621700E0063040F4E02FEF5FEA93E02F0B
:102128000E94E1140F5FF6CF0E944C170E945217CD
:102138000E9467170E946D17EFE0EA93E1E10E94A1
:1021480058170E94F6140E946717099108950E9473
:10215800CA15E0914C05E0934E050E944C170E9469
:102168004617EAE00E94F6140E94C914E0914E0551
:10217800E47021F4EE27E0934F0515C0E0914E0579
:10218800E47089F00E94FB14E0914C05E0934E0541
:10219800E27021F4E0914E05E87011F0EE2701C0DD
:1021A800E1E0E0934F05EDE00E945D170E9467179C
:1021B800E3E00E9462170E947317E7E00E9462172B
:1021C8000E946717E7E0EA93E0E10E9458170E942F
:1021D800F61408951A930E94A314E09182020E94B3
:1021E8007917EBE0EA93E0918302EA930E941310D7
:1021F8000E94CF14E09183020E940515FF93EF938C
:10220800E0918202AF91BF91FF27AE0FBF1F1497D5
:10221800A0935005B093510500E010E0E0915005FF
:10222800F09151050E171F0728F40E94F1150F5F52
:102238001F4FF4CFEE27E0934C05E0914C05E07476
:1022480019F40E94FB14F9CFE5E0EA93E0918202C9
:102258000E947917E6E0EA93E0918302EA930E94EC
:1022680013100E94FF1418C11A930A93EE27EA93D9
:10227800EAE1EA930E94131000E010E00430E0E085
:102288001E0758F40E947D17E02FF12FE058FD4FEC
:102298000E9481170F5F1F4FF1CFE09183020E94C8
:1022A8000515FF93EF93E0918202AF91BF91FF274D
:1022B800EA0FFB1FE0935205F093530500E010E08E
:1022C800E0915205F09153050E171F0778F40E940C
:1022D8007D170C3BE2E01E0730F4E02FF12FEC579E
:1022E800FD4F0E9481170F5F1F4FEACFE0914C0509
:1022F800E07419F40E94FB14F9CF0E946D17E09165
:102308009002E83021F4E0919102E63009F03AC0F9
:10231800E0919302E13091F5E0919402E83071F593
:10232800E0919502E03051F5E0919602E63031F502
:10233800E0919702E43011F5E0919902E130F1F46F
:10234800E091AA02A0916E02EA17C1F4E0916F022F
:10235800EF93E091AB02AF91EA1781F4E09170023C
:10236800EF93E091AC02AF91EA1741F4E09171026A
:10237800EF93E091AD02AF91EA1709F002C00E9415
:10238800E8068AC0E0919002E83011F5E0919102E8
:10239800E030F1F4A091A202E0916E02EA17C1F4D4
:1023A800E091A302EF93E0916F02AF91EA1781F4F5
:1023B800E091A402EF93E0917002AF91EA1741F423
:1023C800E091A502EF93E0917102AF91EA1709F04D
:1023D80063C0E0919C020E940515FF93EF93E09182
:1023E8009D02AF91BF910E943515E0939C02EE27A4
:1023F800E0939D02EE27E0936A05E0936B05E09376
:102408006C05E0936D05EE27E0935405E0935505C0
:10241800E09192020E949715E2E9F2E00E940C1501
:102428000E947815C9F5E0916605F0916705EF2FD0
:10243800EF7FF07060707070E0939C02E091660529
:10244800F09167056091680570916905EF7FF070FC
:1024580060707070E0939D02E09194020E940515EF
:10246800FF93EF93E0919502AF91BF910E94891578
:10247800E0919B02E13019F40E945E070DC0E091E3
:102488009B02E13119F40E94A20706C0E0919B0269
:10249800E63011F40E94450B099119910895E8E07E
:1024A800E0939002EE27E0939102E0919E02E09380
:1024B800A202E0919F02E093A302E091A002E093C0
:1024C800A402E091A102E093A502E0916E02E093DC
:1024D8009E02E0916F02E0939F02E0917002E09308
:1024E800A002E0917102E093A102E0918A02E093D8
:1024F8008402E0918B02E0938502E0918C02E093E4
:102508008602E0918D02E0938702E0918E02E093CB
:102518008802E0918F02E0938902E0917A02E093C9
:102528008A02E0917B02E0938B02E0917C02E093C7
:102538008C02E0917D02E0938D02E0917E02E093AF
:102548008E02E0917F02E0938F02E5E4E09392022D
:10255800EE27E0939C02E0939D02EE27E0936A0544
:10256800E0936B05E0936C05E0936D05E0919202B2
:102578000E949715E2E9F2E00E940C150E942F15BF
:10258800E0939C02E0915405F0915505EF7FF070BF
:10259800E0939D0208950E94E417E0914805F091A8
:1025A80049053197E0934805F0934905A0914805FE
:1025B800B0914905109734F4E8E2F3E2E093480556
:1025C800F09349050E94F2171895A4971A930A9355
:1025D800E6ECF2E0ECA3FDA30E9486170E2F0F3F56
:1025E80029F4E0916602F0916702B6C0FE013296C6
:1025F800FA93EA93EEA1FFA1FA93EA930A930E9451
:10260800B817E02F0E948C17E2E1FDE00E949817AE
:1026180011F00C947A130F5FE02FACA1BDA1FF2736
:10262800EA0FFB1F0E9486171E2F1F3F29F4E09117
:102638006602F091670290C0FE013296FA93EA931F
:10264800E02FAEA1BFA1FF27EA0FFB1FFA93EA9381
:102658001A930E94B817E12F0E948C17E6E1FDE05B
:102668000E94981749F0FE013296FA93EA93E8E13E
:10267800FDE00E94981739F4E0916002F091610240
:10268800EAA3FBA332C0FE013296FA93EA93E4E28E
:10269800FDE00E94981739F4E0916402F091650218
:1026A800EAA3FBA322C0FE013296FA93EA93E0E381
:1026B800FDE00E94981739F4E0916202F0916302FC
:1026C800EAA3FBA312C0FE013296FA93EA93EDE364
:1026D800FDE00E94981719F4E6E9F8E004C0E091DB
:1026E8006802F0916902EAA3FBA334C0FE013296A6
:1026F800FA93EA93EAE4FDE00E94981739F4E0912E
:102708006A02F0916B02EAA3FBA324C0FE01329691
:10271800FA93EA93EFE4FDE00E94981739F4E09108
:102728006A02F0916B02EAA3FBA314C0FE01329681
:10273800FA93EA93E4E5FDE00E94981729F4E09102
:102748006A02F0916B0204C0E0916602F0916702A0
:10275800EAA3FBA3EAA1FBA119810881A696089523
:10276800062C072851F4E1E0F0E06E2E7F2E0E943F
:10277800E912E0938205F093830500240814090404
:1027880021F400240A140B0409F041C0E1E0F0E050
:102798008E2E9F2EE0918205F0918305FA93EA939D
:1027A8000E94AD174E2E5F2EE0918205F0918305B1
:1027B800FA93EA93E0916C02F0916D02FA93EA932E
:1027C8000E94B70FA0916C02B0916D02EA0FFB1F37
:1027D800E0936C02F0936D02A0916C02B0916D02CF
:1027E800A415B50578F0E0915E05F0915F053C967B
:1027F800E0935E05F0935F05E1E0F0E0AE2EBF2EBA
:102808000E940B170E94980ECC24DD2410C0E1E032
:10281800F0E0EA15FB0559F4AA24BB24EE27E0935F
:102828006C02E0936D02CC24DD246624772408959D
:102838000E943410E2E0E9BFE8ECECBFEBE0E3BF54
:10284800E0EEE7B9EFE8E6B9E0E9E5BF78940E9481
:10285800EC160E943717E8E8F3E1FA93EA930E942E
:10286800D8170E94DF080E946717E7E0EA93EFE7AE
:10287800EA930E9413100E94FB14E0914C05E1704A
:1028880041F5E0914805F09149053097F9F4A09198
:102898004605B0914705A130E0E0BE0739F4EE27C0
:1028A800E0934005E09341050E94DF08A0914605AA
:1028B800B0914705A230E0E0BE0741F4E1E0F0E066
:1028C800E0934005F09341050E94DF080E94FB1445
:1028D800D4CF0E94FB14E0914C05E07111F00E94E6
:1028E800AB10E0914C05E17011F00E943811E3E063
:1028F800EA930E942410E0914C05E0934E050E9453
:1029080073170E94FB14E0914C05E0934D050E945B
:102918006717E0914D05A0914E05EA1711F00E9446
:1029280038110E946D179FCFFFCF5F9BFECFECB190
:1029380008955D9BFECFE881ECB9219608950A932E
:10294800EE27EA93E2E2EA930E941310E4E0EA93A6
:10295800E0E4EA930E941310E8E0EA93EE27EA9392
:102968000E941310E9E0EA93E0E4EA930E9413104E
:10297800E7E0EA93EFEFEA930E941310EAE0EA93A4
:102988000895ECE3EA930C941310EBE0EA93EE2736
:10299800EA930C941310EE27EA93E2E1EA930C947D
:1029A8001310E0E1EA93E02F0895EA5FFF27EC5760
:1029B800FD4FE081EA930C941310FF27E658FD4F72
:1029C800E081EA930C941310A0914A05B0914B054D
:1029D800ED91A0934A05B0934B050895E081EA93E1
:1029E8000C941310EA93EE27EA930C941310E7E083
:1029F800EA930C942410EE27EA93E4E2EA930C9409
:102A08001310DF01BB27E0E0F1E00E9431180895C0
:102A1800E0934A05F0934B050E94E70DE0916A05A3
:102A2800F0916B0560916C0570916D05E070F07028
:102A38000E941B18A0916A05B0916B0580916C05E6
:102A480090916D050E9400180E942C18E09354057F
:102A5800F09355050895E0915505F070EF7FF070FB
:102A68000895FF27EA0FFB1F66277727E09366057F
:102A7800F09367056093680570936905EE270895DC
:102A8800EE27E0936A05E0936B05E0936C05E0930D
:102A98006D05E8E0F0E0E0935605F09357050895DA
:102AA800A0916A05B0916B0580916C0590916D05B8
:102AB800FF27662777270E940018E0936A05F0939E
:102AC8006B0560936C0570936D05E2E0F0E0E093B0
:102AD8005605F09357050895FF27EA0FFB1FE0936B
:102AE8005605F09357050895E0916605F09167053E
:102AF8006091680570916905A0915405B0915505DC
:102B0800882799270E944A180895FF27EA0FFB1F74
:102B1800E0936405F09365050895E0916505F0700C
:102B2800EF7FF0700895EF70EE0FEE0FFF27E09340
:102B38005605F09357050895E0916405F0916505F1
:102B48003E96E0935005F0935105A0915005B09141
:102B58005105AC33E0E0BE070895E0915005F091CF
:102B68005105EF7FF070E0934E05E0915105F0704C
:102B7800EF7FF070E0934D05EE27EA93E2E2EA93E7
:102B88000E941310EE27EA930C942410EE27EA9380
:102B98000C942410E4E0EA93E0E4EA930E94131012
:102BA800E8E020CFE9E0EA93E0E4EA930E9413101A
:102BB800E7E0EA93EFEFEA930E941310EAE0EA9362
:102BC800E0914E05EA930E941310EBE0EA93E0913E
:102BD8004D05EA930E941310DECEE0E1EA93E02F60
:102BE800F12F3096EC57FD4FF9CEE5E0EA93E091EE
:102BF8004E05EA930E941310E6E0EA93E0914D0532
:102C0800EA930E941310F7CEA02FBB27A259BD4FFD
:102C1800EFEFEC930895A02FBB27AC57BD4FEE27DD
:102C2800EC930895E02FEA5BFF27EC57FD4F0895DA
:102C3800E02FFF27E658FD4FE0810895E02FE45B81
:102C4800FF27EC57FD4FDF01EE27EC930895E02FA7
:102C5800EA5AFF27EC57FD4FDF01EE27EC93089562
:102C6800E02FA0E2B1E0FF27EA0FFB1FEC57FD4F72
:102C78000895E0935C05F0935D05EC50FF4FEF2F4E
:102C8800EF7FF0700895A0915C05B0915D05AC50A0
:102C9800BF4FEFEFF0E0EA23FB230895FF276627F5
:102CA8007727DF01CB01E8E10E940F180895FF277D
:102CB80066277727DF01CB01E8E00E940F18089507
:102CC800E02FFF27EE5BFA4F0895E02FE65CFF2721
:102CD800EC57FD4F0895E02FFF27EA58FD4F089560
:102CE800FF27EA0FFB1FEC57FD4F0895DF01EE2782
:102CF800EC930895EF70EE0FEE0FA0916405B0917C
:102D08006505FF27AE1BBF0BA0935805B093590567
:102D18000895A0916A05B0916B0580916C0590911A
:102D28006D05FF27662777270E940018E0936A053C
:102D3800F0936B0560936C0570936D050895E091B1
:102D48005805F0915905A0916A05B0916B058091DD
:102D58006C0590916D05662777270E940018E0930F
:102D68006A05F0936B0560936C0570936D05E091AF
:102D78005805F0915905E0935605F09357050895C5
:102D8800E0914E05EC930C94140EA0916005B0915F
:102D980061051196A0936005B09361050895E091CF
:102DA8006E05F0916F0560917005709171050E9434
:102DB8001B18EF7FF070607070700895E0916E05D9
:102DC800F0916F05EF2FEF7FF070607070700895CD
:102DD800EE2DEE7FEE2E0895E1E0F0E0E0937E0523
:102DE800F0937F050C94B413A0917605B091770504
:102DF8008091780590917905E0917A05F0917B05AD
:102E080060917C0570917D050E940A180895EE2D49
:102E1800E260EE2E0895E0934E05A0914D05BB2784
:102E2800E0E0F1E00E943118DF01E0914E05FF2754
:102E3800EA0FFB1FE0935405F0935505A0916A052E
:102E4800B0916B0580916C0590916D056627772789
:102E58000E940018E0936A05F0936B0560936C0577
:102E680070936D050895EE2DED7FEE2E0895E02FF9
:102E7800ED5BFF27EC57FD4F0895EE27E4BBEFEF1E
:102E8800E5BB0895E2E0F0E0FA93EA930C94D817D2
:102E9800EE27EA93E1E2EA930C941310EEE0EA934A
:102EA800E8E5EA930C941310EA930E941310EDE0FE
:102EB8000895EA93E2E0EA930C941310EA93E6E4A7
:102EC800EA930C941310EE27EA93E2E2EA930C9447
:102ED8001310E7E0EA93EFEFEA930C941310EE2750
:102EE800EA93E2E6EA930C941310E450EA930C9404
:102EF8001310E0E1EA930C942410DF01E0914C05F3
:102F0800EC930895FA93EA93E0E2EA930C94CC17D1
:102F1800FF27DE011296AE0FBF1FEE27EC93FE01CE
:102F28003296FA93EA930895FA93EA930E949E17C9
:102F3800E0300895E991F991A991B9911D90059012
:102F4800011421F40020D1F7EE2702C01018E12D5A
:102F58000895AA27BB27E991F9910590002011F05F
:102F68001196FBCFFD0108957991E991F991A99105
:102F7800B991CD01772351F07A9561916D936623CC
:102F8800C9F7772319F07A956D93FBCFFC01089563
:102F98006991A991B991EE277D91671721F0E39581
:102FA8007723D1F7EFEF0895E991F991309639F049
:102FB80080EA9FE00197F1F7A8953197C9F708953E
:102FC8000A921A92FA926A937A938A939A93AA9394
:102FD800BA93EA93FA930FB60A92089509900FBE2E
:102FE800F991E991B991A991999189917991699109
:102FF800F990199009900895EA0FFB1F681F791F2F
:103008000895AE0FBF1F861F971F0895EA1BFB0B7D
:10301800680B790B0895EE230E2EFD01BC0131F0EB
:10302800EE0FFF1F661F771F0A94D1F70895E62F4A
:10303800F72F6627772708956E2F7F2FEE27FF2714
:10304800089588279927B7FF08958FEF9FEF089570
:10305800E095F095609570950895FA9FF02DEB9F97
:10306800F00DEA9FE02DF10D0895182E862F612DA1
:10307800192E972F712D1B2EBF2FF12D1A2EAE2F23
:10308800E12D089500240A160B060895EA17FB0798
:10309800680779070895AE17BF0786079707089549
:00000001FF
